{
  "contractName": "DonorRegister",
  "abi": [
    {
      "inputs": [],
      "payable": false,
      "stateMutability": "nonpayable",
      "type": "constructor"
    },
    {
      "constant": false,
      "inputs": [
        {
          "name": "_id",
          "type": "address"
        },
        {
          "name": "_name",
          "type": "string"
        },
        {
          "name": "_age",
          "type": "uint256"
        },
        {
          "name": "_place",
          "type": "string"
        },
        {
          "name": "_mob",
          "type": "uint256"
        },
        {
          "name": "_medCond",
          "type": "bool"
        },
        {
          "name": "_donGen",
          "type": "uint8"
        },
        {
          "name": "_grp",
          "type": "uint8"
        },
        {
          "name": "_counter",
          "type": "uint256"
        }
      ],
      "name": "setDonor",
      "outputs": [],
      "payable": false,
      "stateMutability": "nonpayable",
      "type": "function"
    },
    {
      "constant": true,
      "inputs": [],
      "name": "getSample",
      "outputs": [
        {
          "name": "_age",
          "type": "uint256"
        },
        {
          "name": "_place",
          "type": "string"
        },
        {
          "name": "_donGen",
          "type": "uint8"
        },
        {
          "name": "_grp",
          "type": "uint8"
        }
      ],
      "payable": false,
      "stateMutability": "view",
      "type": "function"
    }
  ],
  "bytecode": "0x608060405234801561001057600080fd5b506040518061012001604052803373ffffffffffffffffffffffffffffffffffffffff16815260200160405180602001604052806000815250815260200160008152602001604051806020016040528060008152508152602001600081526020016000151581526020016000600281111561008757fe5b81526020016000600781111561009957fe5b8152602001600081525050610897806100b36000396000f3fe608060405234801561001057600080fd5b50600436106100365760003560e01c806331c8039b1461003b5780635131b363146100ef575b600080fd5b6100436102a6565b604051808581526020018060200184600281111561005d57fe5b60ff16815260200183600781111561007157fe5b60ff168152602001828103825285818151815260200191508051906020019080838360005b838110156100b1578082015181840152602081019050610096565b50505050905090810190601f1680156100de5780820380516001836020036101000a031916815260200191505b509550505050505060405180910390f35b6102a4600480360361012081101561010657600080fd5b81019080803573ffffffffffffffffffffffffffffffffffffffff1690602001909291908035906020019064010000000081111561014357600080fd5b82018360208201111561015557600080fd5b8035906020019184600183028401116401000000008311171561017757600080fd5b91908080601f016020809104026020016040519081016040528093929190818152602001838380828437600081840152601f19601f82011690508083019250505050505050919291929080359060200190929190803590602001906401000000008111156101e457600080fd5b8201836020820111156101f657600080fd5b8035906020019184600183028401116401000000008311171561021857600080fd5b91908080601f016020809104026020016040519081016040528093929190818152602001838380828437600081840152601f19601f82011690508083019250505050505050919291929080359060200190929190803515159060200190929190803560ff169060200190929190803560ff1690602001909291908035906020019092919050505061047b565b005b6000606060008060003390506000808273ffffffffffffffffffffffffffffffffffffffff1673ffffffffffffffffffffffffffffffffffffffff1681526020019081526020016000206002015494506000808273ffffffffffffffffffffffffffffffffffffffff1673ffffffffffffffffffffffffffffffffffffffff1681526020019081526020016000206003018054600181600116156101000203166002900480601f0160208091040260200160405190810160405280929190818152602001828054600181600116156101000203166002900480156103cb5780601f106103a0576101008083540402835291602001916103cb565b820191906000526020600020905b8154815290600101906020018083116103ae57829003601f168201915b505050505093506000808273ffffffffffffffffffffffffffffffffffffffff1673ffffffffffffffffffffffffffffffffffffffff16815260200190815260200160002060050160019054906101000a900460ff1692506000808273ffffffffffffffffffffffffffffffffffffffff1673ffffffffffffffffffffffffffffffffffffffff16815260200190815260200160002060050160029054906101000a900460ff1691505090919293565b60126000803373ffffffffffffffffffffffffffffffffffffffff1673ffffffffffffffffffffffffffffffffffffffff1681526020019081526020016000206002015411610532576040517f08c379a000000000000000000000000000000000000000000000000000000000815260040180806020018281038252600e8152602001807f4e6f74206f6c6420656e6f75676800000000000000000000000000000000000081525060200191505060405180910390fd5b600015156000803373ffffffffffffffffffffffffffffffffffffffff1673ffffffffffffffffffffffffffffffffffffffff16815260200190815260200160002060050160009054906101000a900460ff161515146105fa576040517f08c379a00000000000000000000000000000000000000000000000000000000081526004018080602001828103825260118152602001807f4e6f74204d65646963616c6c792066697400000000000000000000000000000081525060200191505060405180910390fd5b6040518061012001604052808a73ffffffffffffffffffffffffffffffffffffffff168152602001898152602001888152602001878152602001868152602001851515815260200184600281111561064e57fe5b815260200183600781111561065f57fe5b8152602001828152506000808b73ffffffffffffffffffffffffffffffffffffffff1673ffffffffffffffffffffffffffffffffffffffff16815260200190815260200160002060008201518160000160006101000a81548173ffffffffffffffffffffffffffffffffffffffff021916908373ffffffffffffffffffffffffffffffffffffffff16021790555060208201518160010190805190602001906107099291906107c6565b506040820151816002015560608201518160030190805190602001906107309291906107c6565b506080820151816004015560a08201518160050160006101000a81548160ff02191690831515021790555060c08201518160050160016101000a81548160ff0219169083600281111561077f57fe5b021790555060e08201518160050160026101000a81548160ff021916908360078111156107a857fe5b02179055506101008201518160060155905050505050505050505050565b828054600181600116156101000203166002900490600052602060002090601f016020900481019282601f1061080757805160ff1916838001178555610835565b82800160010185558215610835579182015b82811115610834578251825591602001919060010190610819565b5b5090506108429190610846565b5090565b61086891905b8082111561086457600081600090555060010161084c565b5090565b9056fea165627a7a723058205726837ed588ea5ea8b3f24acadc4b5bbe4985c3fd8282ab139d0174e82f676d0029",
  "source": "pragma solidity ^0.5.0;\n\n\ncontract DonorRegister {\n  enum gender { male, female, other}\n    enum bGrp { AP, AN, BP, BN,OP, ON,ABP,ABN}\n    struct bDonor{\n        address donorID;\n        string name;\n        uint age;\n        string place;\n        uint mob;\n        bool medCond;\n        gender donGen;\n        bGrp grp;\n        uint counter;\n     }\n  mapping(address=>bDonor)sample;\n  modifier criteria {\n     require(sample[msg.sender].age > 18,\"Not old enough\");\n     require(sample[msg.sender].medCond == false,\"Not Medically fit\");\n     _;\n\n  }\n  function setDonor(address _id,string memory _name,uint _age,string memory _place, uint _mob,bool _medCond, gender _donGen, bGrp _grp,uint _counter)public criteria{\n      sample[_id] = bDonor(_id,_name,_age,_place,_mob,_medCond,_donGen,_grp,_counter);\n  }\n  function getSample()public view returns (uint _age,string memory _place,gender _donGen,bGrp _grp){\n     address donorID = msg.sender;\n     _age = sample[donorID].age;\n     _place = sample[donorID].place;\n     _donGen = sample[donorID].donGen;\n     _grp = sample[donorID].grp;\n\n  }\n  constructor() public {\n     //Intialising the struct variables like Account address and other variables\n     bDonor({donorID:msg.sender,name:\"\",age:0,place:\"\",mob:0,medCond:false,donGen:gender.male,grp:bGrp.AP,counter:0});\n   }\n}\n",
  "sourcePath": "/home/hp/ced-b3-g08/bdc/contracts/DonorRegister.sol",
  "compiler": {
    "name": "solc",
    "version": "0.5.8+commit.23d335f2.Emscripten.clang"
  },
  "schemaVersion": "3.0.11",
  "updatedAt": "2019-08-22T08:21:47.003Z",
  "devdoc": {
    "methods": {}
  },
  "userdoc": {
    "methods": {}
  }
}