{
  "contractName": "DonorRegister",
  "abi": [
    {
      "inputs": [],
      "payable": false,
      "stateMutability": "nonpayable",
      "type": "constructor"
    },
    {
      "constant": false,
      "inputs": [
        {
          "name": "_donorid",
          "type": "uint256"
        },
        {
          "name": "_name",
          "type": "string"
        },
        {
          "name": "_age",
          "type": "uint256"
        },
        {
          "name": "_place",
          "type": "string"
        },
        {
          "name": "_mob",
          "type": "uint256"
        },
        {
          "name": "_medCond",
          "type": "bool"
        },
        {
          "name": "_donGen",
          "type": "uint8"
        },
        {
          "name": "_grp",
          "type": "uint8"
        }
      ],
      "name": "setDonor",
      "outputs": [],
      "payable": false,
      "stateMutability": "nonpayable",
      "type": "function"
    },
    {
      "constant": true,
      "inputs": [],
      "name": "getSample",
      "outputs": [
        {
          "name": "_age",
          "type": "uint256"
        },
        {
          "name": "_place",
          "type": "string"
        },
        {
          "name": "_donGen",
          "type": "uint8"
        },
        {
          "name": "_grp",
          "type": "uint8"
        }
      ],
      "payable": false,
      "stateMutability": "view",
      "type": "function"
    }
  ],
  "bytecode": "0x608060405234801561001057600080fd5b5061070e806100206000396000f3fe608060405234801561001057600080fd5b50600436106100365760003560e01c806331c8039b1461003b5780636d8cd325146100ef575b600080fd5b610043610286565b604051808581526020018060200184600281111561005d57fe5b60ff16815260200183600781111561007157fe5b60ff168152602001828103825285818151815260200191508051906020019080838360005b838110156100b1578082015181840152602081019050610096565b50505050905090810190601f1680156100de5780820380516001836020036101000a031916815260200191505b509550505050505060405180910390f35b610284600480360361010081101561010657600080fd5b81019080803590602001909291908035906020019064010000000081111561012d57600080fd5b82018360208201111561013f57600080fd5b8035906020019184600183028401116401000000008311171561016157600080fd5b91908080601f016020809104026020016040519081016040528093929190818152602001838380828437600081840152601f19601f82011690508083019250505050505050919291929080359060200190929190803590602001906401000000008111156101ce57600080fd5b8201836020820111156101e057600080fd5b8035906020019184600183028401116401000000008311171561020257600080fd5b91908080601f016020809104026020016040519081016040528093929190818152602001838380828437600081840152601f19601f82011690508083019250505050505050919291929080359060200190929190803515159060200190929190803560ff169060200190929190803560ff16906020019092919050505061045b565b005b6000606060008060003390506000808273ffffffffffffffffffffffffffffffffffffffff1673ffffffffffffffffffffffffffffffffffffffff1681526020019081526020016000206001015494506000808273ffffffffffffffffffffffffffffffffffffffff1673ffffffffffffffffffffffffffffffffffffffff1681526020019081526020016000206002018054600181600116156101000203166002900480601f0160208091040260200160405190810160405280929190818152602001828054600181600116156101000203166002900480156103ab5780601f10610380576101008083540402835291602001916103ab565b820191906000526020600020905b81548152906001019060200180831161038e57829003601f168201915b505050505093506000808273ffffffffffffffffffffffffffffffffffffffff1673ffffffffffffffffffffffffffffffffffffffff16815260200190815260200160002060040160019054906101000a900460ff1692506000808273ffffffffffffffffffffffffffffffffffffffff1673ffffffffffffffffffffffffffffffffffffffff16815260200190815260200160002060040160029054906101000a900460ff1691505090919293565b60126000803373ffffffffffffffffffffffffffffffffffffffff1673ffffffffffffffffffffffffffffffffffffffff1681526020019081526020016000206001015411610512576040517f08c379a000000000000000000000000000000000000000000000000000000000815260040180806020018281038252600e8152602001807f4e6f74206f6c6420656e6f75676800000000000000000000000000000000000081525060200191505060405180910390fd5b6040518060e00160405280888152602001878152602001868152602001858152602001841515815260200183600281111561054957fe5b815260200182600781111561055a57fe5b815250600160008a8152602001908152602001600020600082015181600001908051906020019061058c92919061063d565b506020820151816001015560408201518160020190805190602001906105b392919061063d565b506060820151816003015560808201518160040160006101000a81548160ff02191690831515021790555060a08201518160040160016101000a81548160ff0219169083600281111561060257fe5b021790555060c08201518160040160026101000a81548160ff0219169083600781111561062b57fe5b02179055509050505050505050505050565b828054600181600116156101000203166002900490600052602060002090601f016020900481019282601f1061067e57805160ff19168380011785556106ac565b828001600101855582156106ac579182015b828111156106ab578251825591602001919060010190610690565b5b5090506106b991906106bd565b5090565b6106df91905b808211156106db5760008160009055506001016106c3565b5090565b9056fea165627a7a723058200d3b8b4739aa4a254be28593a37e96ea941c5fb08fbdbe31b68c0b075fc2c3710029",
  "source": "/*\n   Please read:\n   The contract was updated to address mapping, noe the donors address is mapped to struct.\n   Consequently, the address has to stored in the address variable donorID\n   Added modifier crieria to check for age and medicalConditions for function setDonor\n   getSample() is now a parameter less function that returns the entire struct\n   Intialised Constructor\n   Thus the corresponding views and routes are to be updated\n*/\npragma solidity ^0.5.0;\n\n\ncontract DonorRegister {\n  enum gender { male, female, other}\n    enum bGrp { AP, AN, BP, BN,OP, ON,ABP,ABN}\n    struct bDonor{\n      //   address donorID;\n        string name;\n        uint age;\n        string place;\n        uint mob;\n        bool medCond;\n        gender donGen;\n        bGrp grp;\n      //   uint counter;\n     }\n  mapping(address=>bDonor)sample;\n  mapping(uint=>bDonor)donor;\n  modifier criteria {\n     require(sample[msg.sender].age > 18,\"Not old enough\");\n   //   require(sample[msg.sender].medCond == false,\"Not Medically fit\");\n     _;\n\n  }\n  function setDonor(uint _donorid,string memory _name,uint _age,string memory _place, uint _mob,bool _medCond, gender _donGen, bGrp _grp)public criteria{\n      donor[_donorid] = bDonor(_name,_age,_place,_mob,_medCond,_donGen,_grp);\n  }\n  function getSample()public view returns (uint _age,string memory _place,gender _donGen,bGrp _grp){\n     address donorID = msg.sender;\n     _age = sample[donorID].age;\n     _place = sample[donorID].place;\n     _donGen = sample[donorID].donGen;\n     _grp = sample[donorID].grp;\n\n  }\n  constructor() public {\n     //Intialising the struct variables like Account address and other variables\n   //   bDonor({donorID:msg.sender,name:\"\",age:0,place:\"\",mob:0,medCond:false,donGen:gender.male,grp:bGrp.AP});\n   }\n}\n",
  "sourcePath": "/home/hp/ced-b3-g08/bdc/contracts/DonorRegister.sol",
  "compiler": {
    "name": "solc",
    "version": "0.5.8+commit.23d335f2.Emscripten.clang"
  },
  "schemaVersion": "3.0.11",
  "updatedAt": "2019-08-22T11:44:29.823Z",
  "devdoc": {
    "methods": {}
  },
  "userdoc": {
    "methods": {}
  }
}