{
  "contractName": "DonorRegister",
  "abi": [
    {
      "constant": false,
      "inputs": [
        {
          "name": "_id",
          "type": "uint256"
        },
        {
          "name": "_name",
          "type": "string"
        },
        {
          "name": "_age",
          "type": "uint256"
        },
        {
          "name": "_place",
          "type": "string"
        },
        {
          "name": "_mob",
          "type": "uint256"
        },
        {
          "name": "_medCond",
          "type": "bool"
        },
        {
          "name": "_donGen",
          "type": "uint8"
        },
        {
          "name": "_grp",
          "type": "uint8"
        }
      ],
      "name": "setDonor",
      "outputs": [],
      "payable": false,
      "stateMutability": "nonpayable",
      "type": "function"
    },
    {
      "constant": true,
      "inputs": [
        {
          "name": "_id",
          "type": "uint256"
        }
      ],
      "name": "getSample",
      "outputs": [
        {
          "name": "_age",
          "type": "uint256"
        },
        {
          "name": "_place",
          "type": "string"
        },
        {
          "name": "_medCond",
          "type": "bool"
        },
        {
          "name": "_donGen",
          "type": "uint8"
        },
        {
          "name": "_grp",
          "type": "uint8"
        }
      ],
      "payable": false,
      "stateMutability": "view",
      "type": "function"
    }
  ],
  "bytecode": "0x608060405234801561001057600080fd5b506105f9806100206000396000f3fe608060405234801561001057600080fd5b50600436106100365760003560e01c806360d1507c1461003b5780636d8cd3251461011e575b600080fd5b6100676004803603602081101561005157600080fd5b81019080803590602001909291905050506102b5565b60405180868152602001806020018515151515815260200184600281111561008b57fe5b60ff16815260200183600781111561009f57fe5b60ff168152602001828103825286818151815260200191508051906020019080838360005b838110156100df5780820151818401526020810190506100c4565b50505050905090810190601f16801561010c5780820380516001836020036101000a031916815260200191505b50965050505050505060405180910390f35b6102b3600480360361010081101561013557600080fd5b81019080803590602001909291908035906020019064010000000081111561015c57600080fd5b82018360208201111561016e57600080fd5b8035906020019184600183028401116401000000008311171561019057600080fd5b91908080601f016020809104026020016040519081016040528093929190818152602001838380828437600081840152601f19601f82011690508083019250505050505050919291929080359060200190929190803590602001906401000000008111156101fd57600080fd5b82018360208201111561020f57600080fd5b8035906020019184600183028401116401000000008311171561023157600080fd5b91908080601f016020809104026020016040519081016040528093929190818152602001838380828437600081840152601f19601f82011690508083019250505050505050919291929080359060200190929190803515159060200190929190803560ff169060200190929190803560ff1690602001909291905050506103fe565b005b6000606060008060008060008781526020019081526020016000206001015494506000808781526020019081526020016000206002018054600181600116156101000203166002900480601f01602080910402602001604051908101604052809291908181526020018280546001816001161561010002031660029004801561037f5780601f106103545761010080835404028352916020019161037f565b820191906000526020600020905b81548152906001019060200180831161036257829003601f168201915b5050505050935060008087815260200190815260200160002060040160009054906101000a900460ff16925060008087815260200190815260200160002060040160019054906101000a900460ff16915060008087815260200190815260200160002060040160029054906101000a900460ff16905091939590929450565b6040518060e00160405280888152602001878152602001868152602001858152602001841515815260200183600281111561043557fe5b815260200182600781111561044657fe5b8152506000808a81526020019081526020016000206000820151816000019080519060200190610477929190610528565b5060208201518160010155604082015181600201908051906020019061049e929190610528565b506060820151816003015560808201518160040160006101000a81548160ff02191690831515021790555060a08201518160040160016101000a81548160ff021916908360028111156104ed57fe5b021790555060c08201518160040160026101000a81548160ff0219169083600781111561051657fe5b02179055509050505050505050505050565b828054600181600116156101000203166002900490600052602060002090601f016020900481019282601f1061056957805160ff1916838001178555610597565b82800160010185558215610597579182015b8281111561059657825182559160200191906001019061057b565b5b5090506105a491906105a8565b5090565b6105ca91905b808211156105c65760008160009055506001016105ae565b5090565b9056fea165627a7a7230582081194904d0d0ff7bd52eb622e296429a5e6e783873092cd5e1c06a408dc9a6e20029",
  "source": "pragma solidity ^0.5.0;\n\n\ncontract DonorRegister {\n  enum gender { male, female, other}\n    enum bGrp { AP, AN, BP, BN,OP, ON,ABP,ABN}\n    struct bDonor{\n        string name;\n        uint age;\n        string place;\n        uint mob;\n        bool medCond;\n        gender donGen;\n        bGrp grp;\n     }\n  mapping(uint=>bDonor)sample;\n  function setDonor(uint _id,string memory _name,uint _age,string memory _place, uint _mob,bool _medCond, gender _donGen, bGrp _grp)public{\n      sample[_id] = bDonor(_name,_age,_place,_mob,_medCond,_donGen,_grp);\n  }\n  function getSample(uint _id)public view returns (uint _age,string memory _place,bool _medCond,gender _donGen,bGrp _grp){\n     _age = sample[_id].age;\n     _place = sample[_id].place;\n     _medCond = sample[_id].medCond;\n     _donGen = sample[_id].donGen;\n     _grp = sample[_id].grp;\n  }\n  // constructor() public {\n  // }\n}\n",
  "sourcePath": "/home/hp/ced-b3-g08/bdc/contracts/DonorRegister.sol",
  "compiler": {
    "name": "solc",
    "version": "0.5.8+commit.23d335f2.Emscripten.clang"
  },
  "schemaVersion": "3.0.11",
  "updatedAt": "2019-08-16T07:08:01.712Z",
  "devdoc": {
    "methods": {}
  },
  "userdoc": {
    "methods": {}
  }
}