{
  "contractName": "DonorRegister",
  "abi": [
    {
      "inputs": [],
      "payable": false,
      "stateMutability": "nonpayable",
      "type": "constructor"
    },
    {
      "constant": false,
      "inputs": [
        {
          "name": "_donorid",
          "type": "address"
        },
        {
          "name": "_name",
          "type": "string"
        },
        {
          "name": "_age",
          "type": "uint256"
        },
        {
          "name": "_place",
          "type": "string"
        },
        {
          "name": "_mob",
          "type": "uint256"
        },
        {
          "name": "_medCond",
          "type": "bool"
        },
        {
          "name": "_donGen",
          "type": "uint8"
        },
        {
          "name": "_grp",
          "type": "uint8"
        }
      ],
      "name": "setDonor",
      "outputs": [],
      "payable": false,
      "stateMutability": "nonpayable",
      "type": "function"
    },
    {
      "constant": true,
      "inputs": [
        {
          "name": "donorID",
          "type": "address"
        }
      ],
      "name": "getSample",
      "outputs": [
        {
          "name": "_age",
          "type": "uint256"
        },
        {
          "name": "_place",
          "type": "string"
        },
        {
          "name": "_donGen",
          "type": "uint8"
        },
        {
          "name": "_grp",
          "type": "uint8"
        },
        {
          "name": "_medCond",
          "type": "bool"
        }
      ],
      "payable": false,
      "stateMutability": "view",
      "type": "function"
    }
  ],
  "bytecode": "0x608060405234801561001057600080fd5b5061072d806100206000396000f3fe608060405234801561001057600080fd5b50600436106100365760003560e01c80633e580b5f1461003b578063a24c440114610134575b600080fd5b61007d6004803603602081101561005157600080fd5b81019080803573ffffffffffffffffffffffffffffffffffffffff1690602001909291905050506102e1565b604051808681526020018060200185600281111561009757fe5b60ff1681526020018460078111156100ab57fe5b60ff16815260200183151515158152602001828103825286818151815260200191508051906020019080838360005b838110156100f55780820151818401526020810190506100da565b50505050905090810190601f1680156101225780820380516001836020036101000a031916815260200191505b50965050505050505060405180910390f35b6102df600480360361010081101561014b57600080fd5b81019080803573ffffffffffffffffffffffffffffffffffffffff1690602001909291908035906020019064010000000081111561018857600080fd5b82018360208201111561019a57600080fd5b803590602001918460018302840111640100000000831117156101bc57600080fd5b91908080601f016020809104026020016040519081016040528093929190818152602001838380828437600081840152601f19601f820116905080830192505050505050509192919290803590602001909291908035906020019064010000000081111561022957600080fd5b82018360208201111561023b57600080fd5b8035906020019184600183028401116401000000008311171561025d57600080fd5b91908080601f016020809104026020016040519081016040528093929190818152602001838380828437600081840152601f19601f82011690508083019250505050505050919291929080359060200190929190803515159060200190929190803560ff169060200190929190803560ff169060200190929190505050610506565b005b6000606060008060008060008773ffffffffffffffffffffffffffffffffffffffff1673ffffffffffffffffffffffffffffffffffffffff1681526020019081526020016000206001015494506000808773ffffffffffffffffffffffffffffffffffffffff1673ffffffffffffffffffffffffffffffffffffffff1681526020019081526020016000206002018054600181600116156101000203166002900480601f0160208091040260200160405190810160405280929190818152602001828054600181600116156101000203166002900480156104035780601f106103d857610100808354040283529160200191610403565b820191906000526020600020905b8154815290600101906020018083116103e657829003601f168201915b505050505093506000808773ffffffffffffffffffffffffffffffffffffffff1673ffffffffffffffffffffffffffffffffffffffff16815260200190815260200160002060040160019054906101000a900460ff1692506000808773ffffffffffffffffffffffffffffffffffffffff1673ffffffffffffffffffffffffffffffffffffffff16815260200190815260200160002060040160029054906101000a900460ff1691506000808773ffffffffffffffffffffffffffffffffffffffff1673ffffffffffffffffffffffffffffffffffffffff16815260200190815260200160002060040160009054906101000a900460ff16905091939590929450565b6040518060e00160405280888152602001878152602001868152602001858152602001841515815260200183600281111561053d57fe5b815260200182600781111561054e57fe5b8152506000808a73ffffffffffffffffffffffffffffffffffffffff1673ffffffffffffffffffffffffffffffffffffffff16815260200190815260200160002060008201518160000190805190602001906105ab92919061065c565b506020820151816001015560408201518160020190805190602001906105d292919061065c565b506060820151816003015560808201518160040160006101000a81548160ff02191690831515021790555060a08201518160040160016101000a81548160ff0219169083600281111561062157fe5b021790555060c08201518160040160026101000a81548160ff0219169083600781111561064a57fe5b02179055509050505050505050505050565b828054600181600116156101000203166002900490600052602060002090601f016020900481019282601f1061069d57805160ff19168380011785556106cb565b828001600101855582156106cb579182015b828111156106ca5782518255916020019190600101906106af565b5b5090506106d891906106dc565b5090565b6106fe91905b808211156106fa5760008160009055506001016106e2565b5090565b9056fea165627a7a72305820114212ff3d338007e67a2d488f5deeb574244aea6b5d5a8fdf2c276a7a6d32890029",
  "source": "/*\n   Please read:\n   The contract was updated to address mapping, noe the donors address is mapped to struct.\n   Consequently, the address has to stored in the address variable donorID\n   Added modifier crieria to check for age and medicalConditions for function setDonor\n   getSample() is now a parameter less function that returns the entire struct\n   Intialised Constructor\n   Thus the corresponding views and routes are to be updated\n*/\npragma solidity ^0.5.0;\n\n\ncontract DonorRegister {\n  enum gender { male, female, other}\n    enum bGrp { AP, AN, BP, BN,OP, ON,ABP,ABN}\n    struct bDonor{\n      //   address donorID;\n        string name;\n        uint age;\n        string place;\n        uint mob;\n        bool medCond;\n        gender donGen;\n        bGrp grp;\n      //   uint counter;\n     }\n  mapping(address=>bDonor)donor;\n//   mapping(uint=>bDonor)donor;\n//   modifier criteria {\n//      require(sample[msg.sender].age > 18,\"Not old enough\");\n//    //   require(sample[msg.sender].medCond == false,\"Not Medically fit\");\n//      _;\n\n//   }\n  function setDonor(address _donorid,string memory _name,uint _age,string memory _place, uint _mob,bool _medCond, gender _donGen, bGrp _grp)public{\n      donor[_donorid] = bDonor(_name,_age,_place,_mob,_medCond,_donGen,_grp);\n  }\n  function getSample(address donorID)public view returns (uint _age,string memory _place,gender _donGen,bGrp _grp,bool _medCond){\n     //address donorID = msg.sender;\n     _age = donor[donorID].age;\n     _place = donor[donorID].place;\n     _donGen = donor[donorID].donGen;\n     _grp = donor[donorID].grp;\n     _medCond = donor[donorID].medCond;\n\n  }\n  constructor() public {\n     //Intialising the struct variables like Account address and other variables\n   //   bDonor({donorID:msg.sender,name:\"\",age:0,place:\"\",mob:0,medCond:false,donGen:gender.male,grp:bGrp.AP});\n   }\n}\n",
  "sourcePath": "/home/hp/ced-b3-g08/bdc/contracts/DonorRegister.sol",
  "compiler": {
    "name": "solc",
    "version": "0.5.8+commit.23d335f2.Emscripten.clang"
  },
  "schemaVersion": "3.0.11",
  "updatedAt": "2019-08-26T09:47:55.605Z",
  "devdoc": {
    "methods": {}
  },
  "userdoc": {
    "methods": {}
  }
}