{
  "contractName": "Request",
  "abi": [
    {
      "constant": true,
      "inputs": [],
      "name": "getSample",
      "outputs": [
        {
          "name": "_age",
          "type": "uint256"
        },
        {
          "name": "_place",
          "type": "string"
        },
        {
          "name": "_donGen",
          "type": "uint8"
        },
        {
          "name": "_grp",
          "type": "uint8"
        }
      ],
      "payable": false,
      "stateMutability": "view",
      "type": "function"
    },
    {
      "constant": false,
      "inputs": [
        {
          "name": "_donorid",
          "type": "uint256"
        },
        {
          "name": "_name",
          "type": "string"
        },
        {
          "name": "_age",
          "type": "uint256"
        },
        {
          "name": "_place",
          "type": "string"
        },
        {
          "name": "_mob",
          "type": "uint256"
        },
        {
          "name": "_medCond",
          "type": "bool"
        },
        {
          "name": "_donGen",
          "type": "uint8"
        },
        {
          "name": "_grp",
          "type": "uint8"
        }
      ],
      "name": "setDonor",
      "outputs": [],
      "payable": false,
      "stateMutability": "nonpayable",
      "type": "function"
    },
    {
      "constant": false,
      "inputs": [
        {
          "name": "_id",
          "type": "uint256"
        },
        {
          "name": "_amount",
          "type": "uint256"
        },
        {
          "name": "_place",
          "type": "string"
        },
        {
          "name": "_donors",
          "type": "address"
        },
        {
          "name": "_status",
          "type": "bool"
        }
      ],
      "name": "requestBlood",
      "outputs": [],
      "payable": false,
      "stateMutability": "nonpayable",
      "type": "function"
    }
  ],
  "bytecode": "0x60806040526108f8806100136000396000f3fe608060405234801561001057600080fd5b50600436106100415760003560e01c806331c8039b146100465780636d8cd325146100fa578063da71fac114610291575b600080fd5b61004e61038c565b604051808581526020018060200184600281111561006857fe5b60ff16815260200183600781111561007c57fe5b60ff168152602001828103825285818151815260200191508051906020019080838360005b838110156100bc5780820151818401526020810190506100a1565b50505050905090810190601f1680156100e95780820380516001836020036101000a031916815260200191505b509550505050505060405180910390f35b61028f600480360361010081101561011157600080fd5b81019080803590602001909291908035906020019064010000000081111561013857600080fd5b82018360208201111561014a57600080fd5b8035906020019184600183028401116401000000008311171561016c57600080fd5b91908080601f016020809104026020016040519081016040528093929190818152602001838380828437600081840152601f19601f82011690508083019250505050505050919291929080359060200190929190803590602001906401000000008111156101d957600080fd5b8201836020820111156101eb57600080fd5b8035906020019184600183028401116401000000008311171561020d57600080fd5b91908080601f016020809104026020016040519081016040528093929190818152602001838380828437600081840152601f19601f82011690508083019250505050505050919291929080359060200190929190803515159060200190929190803560ff169060200190929190803560ff169060200190929190505050610561565b005b61038a600480360360a08110156102a757600080fd5b810190808035906020019092919080359060200190929190803590602001906401000000008111156102d857600080fd5b8201836020820111156102ea57600080fd5b8035906020019184600183028401116401000000008311171561030c57600080fd5b91908080601f016020809104026020016040519081016040528093929190818152602001838380828437600081840152601f19601f820116905080830192505050505050509192919290803573ffffffffffffffffffffffffffffffffffffffff169060200190929190803515159060200190929190505050610743565b005b6000606060008060003390506000808273ffffffffffffffffffffffffffffffffffffffff1673ffffffffffffffffffffffffffffffffffffffff1681526020019081526020016000206001015494506000808273ffffffffffffffffffffffffffffffffffffffff1673ffffffffffffffffffffffffffffffffffffffff1681526020019081526020016000206002018054600181600116156101000203166002900480601f0160208091040260200160405190810160405280929190818152602001828054600181600116156101000203166002900480156104b15780601f10610486576101008083540402835291602001916104b1565b820191906000526020600020905b81548152906001019060200180831161049457829003601f168201915b505050505093506000808273ffffffffffffffffffffffffffffffffffffffff1673ffffffffffffffffffffffffffffffffffffffff16815260200190815260200160002060040160019054906101000a900460ff1692506000808273ffffffffffffffffffffffffffffffffffffffff1673ffffffffffffffffffffffffffffffffffffffff16815260200190815260200160002060040160029054906101000a900460ff1691505090919293565b60126000803373ffffffffffffffffffffffffffffffffffffffff1673ffffffffffffffffffffffffffffffffffffffff1681526020019081526020016000206001015411610618576040517f08c379a000000000000000000000000000000000000000000000000000000000815260040180806020018281038252600e8152602001807f4e6f74206f6c6420656e6f75676800000000000000000000000000000000000081525060200191505060405180910390fd5b6040518060e00160405280888152602001878152602001868152602001858152602001841515815260200183600281111561064f57fe5b815260200182600781111561066057fe5b815250600160008a81526020019081526020016000206000820151816000019080519060200190610692929190610827565b506020820151816001015560408201518160020190805190602001906106b9929190610827565b506060820151816003015560808201518160040160006101000a81548160ff02191690831515021790555060a08201518160040160016101000a81548160ff0219169083600281111561070857fe5b021790555060c08201518160040160026101000a81548160ff0219169083600781111561073157fe5b02179055509050505050505050505050565b60405180608001604052808581526020018481526020018373ffffffffffffffffffffffffffffffffffffffff168152602001821515815250600260008781526020019081526020016000206000820151816000015560208201518160010190805190602001906107b5929190610827565b5060408201518160020160006101000a81548173ffffffffffffffffffffffffffffffffffffffff021916908373ffffffffffffffffffffffffffffffffffffffff16021790555060608201518160020160146101000a81548160ff0219169083151502179055509050505050505050565b828054600181600116156101000203166002900490600052602060002090601f016020900481019282601f1061086857805160ff1916838001178555610896565b82800160010185558215610896579182015b8281111561089557825182559160200191906001019061087a565b5b5090506108a391906108a7565b5090565b6108c991905b808211156108c55760008160009055506001016108ad565b5090565b9056fea165627a7a72305820a0c42b69cda6b0d49c698ecd011c78cb58e0840f79c9b095cc0e27d2c3c62d9b0029",
  "source": "pragma solidity ^0.5.0;\n\nimport \"../contracts/DonorRegister.sol\";\ncontract Request is DonorRegister{\n  struct bRequest{\n    uint amount;\n    string place;\n    address donors;\n    bool status;\n\n  }\n  mapping(uint =>bRequest)request;\n  function requestBlood(uint _id,uint _amount,string memory _place,address _donors,bool _status)public{\n   request[_id] = bRequest(_amount,_place,_donors,_status);\n  }\n  \n  \n  // constructor() public {\n  // }\n}\n",
  "sourcePath": "/home/hp/ced-b3-g08/bdc/contracts/Request.sol",
  "compiler": {
    "name": "solc",
    "version": "0.5.8+commit.23d335f2.Emscripten.clang"
  },
  "schemaVersion": "3.0.11",
  "updatedAt": "2019-08-22T11:36:19.122Z",
  "devdoc": {
    "methods": {}
  },
  "userdoc": {
    "methods": {}
  }
}