{
  "contractName": "Request",
  "abi": [
    {
      "constant": true,
      "inputs": [],
      "name": "getSample",
      "outputs": [
        {
          "name": "_age",
          "type": "uint256"
        },
        {
          "name": "_place",
          "type": "string"
        },
        {
          "name": "_donGen",
          "type": "uint8"
        },
        {
          "name": "_grp",
          "type": "uint8"
        }
      ],
      "payable": false,
      "stateMutability": "view",
      "type": "function"
    },
    {
      "constant": false,
      "inputs": [
        {
          "name": "_id",
          "type": "address"
        },
        {
          "name": "_name",
          "type": "string"
        },
        {
          "name": "_age",
          "type": "uint256"
        },
        {
          "name": "_place",
          "type": "string"
        },
        {
          "name": "_mob",
          "type": "uint256"
        },
        {
          "name": "_medCond",
          "type": "bool"
        },
        {
          "name": "_donGen",
          "type": "uint8"
        },
        {
          "name": "_grp",
          "type": "uint8"
        },
        {
          "name": "_counter",
          "type": "uint256"
        }
      ],
      "name": "setDonor",
      "outputs": [],
      "payable": false,
      "stateMutability": "nonpayable",
      "type": "function"
    },
    {
      "constant": false,
      "inputs": [
        {
          "name": "_id",
          "type": "uint256"
        },
        {
          "name": "_amount",
          "type": "uint256"
        },
        {
          "name": "_place",
          "type": "string"
        },
        {
          "name": "_donors",
          "type": "address"
        },
        {
          "name": "_status",
          "type": "bool"
        }
      ],
      "name": "requestBlood",
      "outputs": [],
      "payable": false,
      "stateMutability": "nonpayable",
      "type": "function"
    }
  ],
  "bytecode": "0x60806040526040518061012001604052803373ffffffffffffffffffffffffffffffffffffffff16815260200160405180602001604052806000815250815260200160008152602001604051806020016040528060008152508152602001600081526020016000151581526020016000600281111561007a57fe5b81526020016000600781111561008c57fe5b8152602001600081525050610a81806100a66000396000f3fe608060405234801561001057600080fd5b50600436106100415760003560e01c806331c8039b146100465780635131b363146100fa578063da71fac1146102b1575b600080fd5b61004e6103ac565b604051808581526020018060200184600281111561006857fe5b60ff16815260200183600781111561007c57fe5b60ff168152602001828103825285818151815260200191508051906020019080838360005b838110156100bc5780820151818401526020810190506100a1565b50505050905090810190601f1680156100e95780820380516001836020036101000a031916815260200191505b509550505050505060405180910390f35b6102af600480360361012081101561011157600080fd5b81019080803573ffffffffffffffffffffffffffffffffffffffff1690602001909291908035906020019064010000000081111561014e57600080fd5b82018360208201111561016057600080fd5b8035906020019184600183028401116401000000008311171561018257600080fd5b91908080601f016020809104026020016040519081016040528093929190818152602001838380828437600081840152601f19601f82011690508083019250505050505050919291929080359060200190929190803590602001906401000000008111156101ef57600080fd5b82018360208201111561020157600080fd5b8035906020019184600183028401116401000000008311171561022357600080fd5b91908080601f016020809104026020016040519081016040528093929190818152602001838380828437600081840152601f19601f82011690508083019250505050505050919291929080359060200190929190803515159060200190929190803560ff169060200190929190803560ff16906020019092919080359060200190929190505050610581565b005b6103aa600480360360a08110156102c757600080fd5b810190808035906020019092919080359060200190929190803590602001906401000000008111156102f857600080fd5b82018360208201111561030a57600080fd5b8035906020019184600183028401116401000000008311171561032c57600080fd5b91908080601f016020809104026020016040519081016040528093929190818152602001838380828437600081840152601f19601f820116905080830192505050505050509192919290803573ffffffffffffffffffffffffffffffffffffffff1690602001909291908035151590602001909291905050506108cc565b005b6000606060008060003390506000808273ffffffffffffffffffffffffffffffffffffffff1673ffffffffffffffffffffffffffffffffffffffff1681526020019081526020016000206002015494506000808273ffffffffffffffffffffffffffffffffffffffff1673ffffffffffffffffffffffffffffffffffffffff1681526020019081526020016000206003018054600181600116156101000203166002900480601f0160208091040260200160405190810160405280929190818152602001828054600181600116156101000203166002900480156104d15780601f106104a6576101008083540402835291602001916104d1565b820191906000526020600020905b8154815290600101906020018083116104b457829003601f168201915b505050505093506000808273ffffffffffffffffffffffffffffffffffffffff1673ffffffffffffffffffffffffffffffffffffffff16815260200190815260200160002060050160019054906101000a900460ff1692506000808273ffffffffffffffffffffffffffffffffffffffff1673ffffffffffffffffffffffffffffffffffffffff16815260200190815260200160002060050160029054906101000a900460ff1691505090919293565b60126000803373ffffffffffffffffffffffffffffffffffffffff1673ffffffffffffffffffffffffffffffffffffffff1681526020019081526020016000206002015411610638576040517f08c379a000000000000000000000000000000000000000000000000000000000815260040180806020018281038252600e8152602001807f4e6f74206f6c6420656e6f75676800000000000000000000000000000000000081525060200191505060405180910390fd5b600015156000803373ffffffffffffffffffffffffffffffffffffffff1673ffffffffffffffffffffffffffffffffffffffff16815260200190815260200160002060050160009054906101000a900460ff16151514610700576040517f08c379a00000000000000000000000000000000000000000000000000000000081526004018080602001828103825260118152602001807f4e6f74204d65646963616c6c792066697400000000000000000000000000000081525060200191505060405180910390fd5b6040518061012001604052808a73ffffffffffffffffffffffffffffffffffffffff168152602001898152602001888152602001878152602001868152602001851515815260200184600281111561075457fe5b815260200183600781111561076557fe5b8152602001828152506000808b73ffffffffffffffffffffffffffffffffffffffff1673ffffffffffffffffffffffffffffffffffffffff16815260200190815260200160002060008201518160000160006101000a81548173ffffffffffffffffffffffffffffffffffffffff021916908373ffffffffffffffffffffffffffffffffffffffff160217905550602082015181600101908051906020019061080f9291906109b0565b506040820151816002015560608201518160030190805190602001906108369291906109b0565b506080820151816004015560a08201518160050160006101000a81548160ff02191690831515021790555060c08201518160050160016101000a81548160ff0219169083600281111561088557fe5b021790555060e08201518160050160026101000a81548160ff021916908360078111156108ae57fe5b02179055506101008201518160060155905050505050505050505050565b60405180608001604052808581526020018481526020018373ffffffffffffffffffffffffffffffffffffffff1681526020018215158152506001600087815260200190815260200160002060008201518160000155602082015181600101908051906020019061093e9291906109b0565b5060408201518160020160006101000a81548173ffffffffffffffffffffffffffffffffffffffff021916908373ffffffffffffffffffffffffffffffffffffffff16021790555060608201518160020160146101000a81548160ff0219169083151502179055509050505050505050565b828054600181600116156101000203166002900490600052602060002090601f016020900481019282601f106109f157805160ff1916838001178555610a1f565b82800160010185558215610a1f579182015b82811115610a1e578251825591602001919060010190610a03565b5b509050610a2c9190610a30565b5090565b610a5291905b80821115610a4e576000816000905550600101610a36565b5090565b9056fea165627a7a7230582099875fe4f6d0a17e0363e8bd87c42907c7f97f36e68264d6265757dfa9a0cd8b0029",
  "source": "pragma solidity ^0.5.0;\n\nimport \"../contracts/DonorRegister.sol\";\ncontract Request is DonorRegister{\n  struct bRequest{\n    uint amount;\n    string place;\n    address donors;\n    bool status;\n\n  }\n  mapping(uint =>bRequest)request;\n  function requestBlood(uint _id,uint _amount,string memory _place,address _donors,bool _status)public{\n   request[_id] = bRequest(_amount,_place,_donors,_status);\n  }\n  \n  \n  // constructor() public {\n  // }\n}\n",
  "sourcePath": "/home/hp/ced-b3-g08/bdc/contracts/Request.sol",
  "compiler": {
    "name": "solc",
    "version": "0.5.8+commit.23d335f2.Emscripten.clang"
  },
  "schemaVersion": "3.0.11",
  "updatedAt": "2019-08-22T08:20:41.242Z",
  "devdoc": {
    "methods": {}
  },
  "userdoc": {
    "methods": {}
  }
}