{
  "contractName": "Request",
  "abi": [
    {
      "constant": true,
      "inputs": [
        {
          "name": "donorID",
          "type": "address"
        }
      ],
      "name": "getSample",
      "outputs": [
        {
          "name": "_age",
          "type": "uint256"
        },
        {
          "name": "_place",
          "type": "string"
        },
        {
          "name": "_donGen",
          "type": "uint8"
        },
        {
          "name": "_grp",
          "type": "uint8"
        },
        {
          "name": "_medCond",
          "type": "bool"
        }
      ],
      "payable": false,
      "stateMutability": "view",
      "type": "function"
    },
    {
      "constant": false,
      "inputs": [
        {
          "name": "_donorid",
          "type": "address"
        },
        {
          "name": "_name",
          "type": "string"
        },
        {
          "name": "_age",
          "type": "uint256"
        },
        {
          "name": "_place",
          "type": "string"
        },
        {
          "name": "_mob",
          "type": "uint256"
        },
        {
          "name": "_medCond",
          "type": "bool"
        },
        {
          "name": "_donGen",
          "type": "uint8"
        },
        {
          "name": "_grp",
          "type": "uint8"
        }
      ],
      "name": "setDonor",
      "outputs": [],
      "payable": false,
      "stateMutability": "nonpayable",
      "type": "function"
    },
    {
      "constant": false,
      "inputs": [
        {
          "name": "_requestee",
          "type": "address"
        },
        {
          "name": "_donorNos",
          "type": "uint256"
        },
        {
          "name": "_location",
          "type": "string"
        },
        {
          "name": "_reqGrp",
          "type": "uint8"
        }
      ],
      "name": "setReq",
      "outputs": [],
      "payable": false,
      "stateMutability": "nonpayable",
      "type": "function"
    },
    {
      "constant": true,
      "inputs": [
        {
          "name": "requestEE",
          "type": "address"
        }
      ],
      "name": "getReq",
      "outputs": [
        {
          "name": "_donorNos",
          "type": "uint256"
        },
        {
          "name": "_location",
          "type": "string"
        },
        {
          "name": "_reqGrp",
          "type": "uint8"
        }
      ],
      "payable": false,
      "stateMutability": "view",
      "type": "function"
    }
  ],
  "bytecode": "0x6080604052610b4d806100136000396000f3fe608060405234801561001057600080fd5b506004361061004c5760003560e01c80633e580b5f146100515780635112a3ad1461014a578063681ac86414610223578063a24c440114610315575b600080fd5b6100936004803603602081101561006757600080fd5b81019080803573ffffffffffffffffffffffffffffffffffffffff1690602001909291905050506104c2565b60405180868152602001806020018560028111156100ad57fe5b60ff1681526020018460078111156100c157fe5b60ff16815260200183151515158152602001828103825286818151815260200191508051906020019080838360005b8381101561010b5780820151818401526020810190506100f0565b50505050905090810190601f1680156101385780820380516001836020036101000a031916815260200191505b50965050505050505060405180910390f35b61018c6004803603602081101561016057600080fd5b81019080803573ffffffffffffffffffffffffffffffffffffffff1690602001909291905050506106e7565b60405180848152602001806020018360078111156101a657fe5b60ff168152602001828103825284818151815260200191508051906020019080838360005b838110156101e65780820151818401526020810190506101cb565b50505050905090810190601f1680156102135780820380516001836020036101000a031916815260200191505b5094505050505060405180910390f35b6103136004803603608081101561023957600080fd5b81019080803573ffffffffffffffffffffffffffffffffffffffff169060200190929190803590602001909291908035906020019064010000000081111561028057600080fd5b82018360208201111561029257600080fd5b803590602001918460018302840111640100000000831117156102b457600080fd5b91908080601f016020809104026020016040519081016040528093929190818152602001838380828437600081840152601f19601f820116905080830192505050505050509192919290803560ff169060200190929190505050610868565b005b6104c0600480360361010081101561032c57600080fd5b81019080803573ffffffffffffffffffffffffffffffffffffffff1690602001909291908035906020019064010000000081111561036957600080fd5b82018360208201111561037b57600080fd5b8035906020019184600183028401116401000000008311171561039d57600080fd5b91908080601f016020809104026020016040519081016040528093929190818152602001838380828437600081840152601f19601f820116905080830192505050505050509192919290803590602001909291908035906020019064010000000081111561040a57600080fd5b82018360208201111561041c57600080fd5b8035906020019184600183028401116401000000008311171561043e57600080fd5b91908080601f016020809104026020016040519081016040528093929190818152602001838380828437600081840152601f19601f82011690508083019250505050505050919291929080359060200190929190803515159060200190929190803560ff169060200190929190803560ff169060200190929190505050610926565b005b6000606060008060008060008773ffffffffffffffffffffffffffffffffffffffff1673ffffffffffffffffffffffffffffffffffffffff1681526020019081526020016000206001015494506000808773ffffffffffffffffffffffffffffffffffffffff1673ffffffffffffffffffffffffffffffffffffffff1681526020019081526020016000206002018054600181600116156101000203166002900480601f0160208091040260200160405190810160405280929190818152602001828054600181600116156101000203166002900480156105e45780601f106105b9576101008083540402835291602001916105e4565b820191906000526020600020905b8154815290600101906020018083116105c757829003601f168201915b505050505093506000808773ffffffffffffffffffffffffffffffffffffffff1673ffffffffffffffffffffffffffffffffffffffff16815260200190815260200160002060040160019054906101000a900460ff1692506000808773ffffffffffffffffffffffffffffffffffffffff1673ffffffffffffffffffffffffffffffffffffffff16815260200190815260200160002060040160029054906101000a900460ff1691506000808773ffffffffffffffffffffffffffffffffffffffff1673ffffffffffffffffffffffffffffffffffffffff16815260200190815260200160002060040160009054906101000a900460ff16905091939590929450565b600060606000600160008573ffffffffffffffffffffffffffffffffffffffff1673ffffffffffffffffffffffffffffffffffffffff168152602001908152602001600020600001549250600160008573ffffffffffffffffffffffffffffffffffffffff1673ffffffffffffffffffffffffffffffffffffffff1681526020019081526020016000206001018054600181600116156101000203166002900480601f0160208091040260200160405190810160405280929190818152602001828054600181600116156101000203166002900480156108085780601f106107dd57610100808354040283529160200191610808565b820191906000526020600020905b8154815290600101906020018083116107eb57829003601f168201915b50505050509150600160008573ffffffffffffffffffffffffffffffffffffffff1673ffffffffffffffffffffffffffffffffffffffff16815260200190815260200160002060020160009054906101000a900460ff1690509193909250565b604051806060016040528084815260200183815260200182600781111561088b57fe5b815250600160008673ffffffffffffffffffffffffffffffffffffffff1673ffffffffffffffffffffffffffffffffffffffff1681526020019081526020016000206000820151816000015560208201518160010190805190602001906108f3929190610a7c565b5060408201518160020160006101000a81548160ff0219169083600781111561091857fe5b021790555090505050505050565b6040518060e00160405280888152602001878152602001868152602001858152602001841515815260200183600281111561095d57fe5b815260200182600781111561096e57fe5b8152506000808a73ffffffffffffffffffffffffffffffffffffffff1673ffffffffffffffffffffffffffffffffffffffff16815260200190815260200160002060008201518160000190805190602001906109cb929190610a7c565b506020820151816001015560408201518160020190805190602001906109f2929190610a7c565b506060820151816003015560808201518160040160006101000a81548160ff02191690831515021790555060a08201518160040160016101000a81548160ff02191690836002811115610a4157fe5b021790555060c08201518160040160026101000a81548160ff02191690836007811115610a6a57fe5b02179055509050505050505050505050565b828054600181600116156101000203166002900490600052602060002090601f016020900481019282601f10610abd57805160ff1916838001178555610aeb565b82800160010185558215610aeb579182015b82811115610aea578251825591602001919060010190610acf565b5b509050610af89190610afc565b5090565b610b1e91905b80821115610b1a576000816000905550600101610b02565b5090565b9056fea165627a7a72305820a94ddcaa2abe4a1226e7b2985b9b53a08f2eb83d3a1af379c2327dc7793a86a10029",
  "source": "pragma solidity ^0.5.0;\n\nimport \"../contracts/DonorRegister.sol\";\ncontract Request is DonorRegister{\n  // struct bRequest{\n  //   uint donorNos;\n  //   string place;\n  //   bGrp reqGrp;\n  //   bool status;\n  // }\n  // address donors;\n  // mapping(address =>bRequest)request;\n  // function requestBlood(address _id,uint _donorNos,string memory _place,bGrp _reqGrp,bool _status)public{\n  //  request[_id] = bRequest(_donorNos,_place,_reqGrp,_status);\n  // }\n  \n  // function appreciation()\n  \n  // constructor() public {\n  // }\n  struct acpReq{\n        //address requestee;\n        uint donorNos;\n        string location;\n        //uint age;\n        bGrp reqGrp;\n        //bool status;\n    }\n\n    mapping(address=>acpReq)acceptor;\n\n    function setReq(address _requestee,uint _donorNos,string memory _location,bGrp _reqGrp)public{\n       acceptor[_requestee] = acpReq(_donorNos,_location,_reqGrp);\n   }\n   \n   function getReq(address requestEE)public view returns(uint _donorNos,string memory _location,bGrp _reqGrp){\n       _donorNos = acceptor[requestEE].donorNos;\n       _location = acceptor[requestEE].location;\n       _reqGrp = acceptor[requestEE].reqGrp;\n   }\n}\n",
  "sourcePath": "/home/hp/ced-b3-g08/bdc/contracts/Request.sol",
  "compiler": {
    "name": "solc",
    "version": "0.5.8+commit.23d335f2.Emscripten.clang"
  },
  "schemaVersion": "3.0.11",
  "updatedAt": "2019-08-28T09:43:16.517Z",
  "devdoc": {
    "methods": {}
  },
  "userdoc": {
    "methods": {}
  }
}